S00B00006C63642E73726563E6
S11300000C9434000C941A040C9451000C94510078
S11300100C9451000C9451000C9451000C94510018
S11300200C9451000C9451000C9451000C94510008
S11300300C9451000C9451000C9451000C945100F8
S11300400C9486030C9451000C9451020C945100AE
S11300500C9451000C9451000C9451000C945100D8
S11300600C9451000C94510011241FBECFEFD8E022
S1130070DEBFCDBF11E0A0E0B1E0E2EBFCE002C0E6
S113008005900D92A63DB107D9F712E0A6EDB1E0B7
S113009001C01D92A134B107E1F70E9413060C942C
S11300A057060C9400008091E701982F9460909378
S11300B0E7018C6090E00E945E00089590E060E0AB
S11300C070E00E94640008950F931F93CF93DF9311
S11300D0082F162FCDE7D0E0807F862B90E0FE011D
S11300E00995802F8295807F812B90E0FE010995F0
S11300F0DF91CF911F910F910895CF93C82F90E076
S11301000E94DE008C2F90E00E94FF00CF910895A2
S11301101092B90082E18093B80084E08093BC001F
S1130120089584EA8093BC00ECEBF0E0808188239E
S1130130ECF7089584E98093BC0008958093BB0094
S113014084E88093BC00ECEBF0E080818823ECF73A
S11301500895CF93DF93EB01FB01E40FF11D1082AF
S1130160442399F041502AE030E001C0452FFE01BC
S1130170E40FF11DB9010E944306805D8083862F40
S1130180972F542F5150442389F7DF91CF9108952D
S113019081E090E00E945E008FE39FE10197F1F718
S11301A000C00000089582E090E00E945E008FE3AA
S11301B09FE10197F1F700C0000008951F93CF93CA
S11301C0DF93182F85E38A95F1F700000E949100D0
S11301D0CEE9D0E08091E60190E0FE01099585E347
S11301E08A95F1F700008091DB01812B90E0FE01FC
S11301F009950E949A00DF91CF911F910895CF93A2
S1130200C82F84600E94DE0085E08A95F1F7000023
S11302108C2F8B7F0E94DE0087EC90E00197F1F732
S113022000C00000CF910895880F8093E601609389
S11302303D0240933F022093E80188E08093DB0174
S11302400895CF93DF930E9488001092FE0180915D
S11302503F02823018F098E09093FE019091E801FB
S1130260992339F0813029F48091FE0184608093D0
S1130270FE018FEF90E7A2E081509040A040E1F7AB
S113028000C000008091DB0190E00E94DE008FEF4F
S113029090E7A2E081509040A040E1F700C0000048
S11302A0CDE7D0E080E390E0FE010995AFE4B6E449
S11302B01197F1F700C0000080E390E0FE0109957A
S11302C08FE496E40197F1F700C0000080E390E02A
S11302D0FE010995A7E5B2E01197F1F700C000000F
S11302E080E290E0FE010995CEE5D0E08091FE0128
S11302F0806290E0FE01099584E08093E7010E940A
S113030053000E94C80082E08093FD0186E090E0E3
S1130310FE0109950E94D300DF91CF910895CF93F8
S1130320DF93CDB7DEB728970FB6F894DEBF0FBEC4
S1130330CDBFDE011196E0E0F1E098E001900D926E
S11303409150E1F790913F02961710F4692F615094
S1130350E62FF0E0EE0FFF1FEC0FFD1F218132812D
S1130360A901480F511DCA0180680E945E002896A9
S11303700FB6F894DEBF0FBECDBFDF91CF910895C5
S11303808091E7018B7F8093E701886090E00E9471
S11303905E0008958091E7018D7F8093E701886076
S11303A090E00E945E0008958091E701982F92608A
S11303B09093E7018A6090E00E945E000895809126
S11303C0E7018E7F8093E701886090E00E945E00E1
S11303D008958091E701982F91609093E7018960D7
S11303E090E00E945E00089588E190E00E945E0023
S11303F008958CE190E00E945E0008958091FD01D3
S1130400982F92609093FD01866090E00E945E00B8
S113041008958091FD018D7F8093FD01846090E0BB
S11304200E945E0008958091FD01982F9160909341
S1130430FD01856090E00E945E0008958091FD01B9
S11304408E7F8093FD01846090E00E945E00089599
S11304501092DB0180E090E00E94DE00089588E0C5
S11304608093DB0180E090E00E94DE00089508950F
S113047090E061E070E00E9464000895CF93DF9300
S1130480EC018881882351F021960E94380285E08E
S11304908A95F1F7000089918823B9F7DF91CF910C
S11304A008951F920F920FB60F9211242F923F922C
S11304B04F925F926F927F928F929F92AF92BF9270
S11304C0CF92DF92EF92FF920F931F932F933F935C
S11304D04F935F936F937F938F939F93AF93BF9348
S11304E0CF93DF93EF93FF938091C60080934002F4
S11304F080913E02882361F4809140028A3261F542
S113050081E080933E02109200021092FF0124C009
S113051080914002863289F410923E02E091FF01FC
S1130520F0910002E751FE4F108281E08093D801E0
S1130530109200021092FF010FC08091FF01909170
S1130540000220914002FC01E751FE4F20830196F6
S1130550909300028093FF0180914002833709F059
S1130560B2C00EE914E088E091E0F80109950F2E7D
S1130570F6E0EF2EF2E0FF2EF02DCC24DD240F2E3A
S1130580F9EA8F2EF0E09F2EF02DCCEDD1E00F2E66
S1130590FBE06F2EF1E07F2EF02D0F2EF1E1AF2E58
S11305A0F1E0BF2EF02D0F2EF4E14F2EF1E05F2E7F
S11305B0F02D0F2EF1E02F2EF2E03F2EF02DF7015B
S11305C03597808190E0BE0142E050E0F401099546
S11305D0C301F8010995CE01F8010995C501F80197
S11305E00995F7013497808190E0BE0142E050E024
S11305F0F4010995C201F8010995CE01F8010995A4
S1130600C501F8010995C601880F991F8C0D9D1D20
S1130610880F991F820D931DFC01828190E0BE0119
S113062042E050E0F40109958AE191E0F80109956E
S1130630CE01F8010995C501F8010995F701329732
S1130640808190E0BE0142E050E0F401099580E22F
S113065091E0F8010995CE01F8010995C501F80169
S11306600995F7013197808190E0BE0142E050E0A6
S1130670F401099586E291E0F8010995CE01F801AB
S11306800995C501F8010995F701808190E0BE0143
S113069042E050E0F40109958EE291E0F8010995F9
S11306A0CE01F801099588E091E0F80109950894D4
S11306B0C11CD11C86E090E0E80EF91E9AE0C91630
S11306C0D10409F07CCFFF91EF91DF91CF91BF91DD
S11306D0AF919F918F917F916F915F914F913F91D6
S11306E02F911F910F91FF90EF90DF90CF90BF90CB
S11306F0AF909F908F907F906F905F904F903F90BE
S11307002F900F900FBE0F901F9018951F920F926D
S11307100FB60F9211240F931F932F933F934F9370
S11307205F936F937F938F939F93AF93BF93CF9375
S1130730DF93EF93FF938091D9019091DA010196B1
S11307409093DA018093D9018091D9019091DA01D3
S11307508436910509F057C08091D6019091D70154
S1130760FC01EE0FFF1F8E0F9F1FFC01EE0FFF1FFA
S1130770EF5FFD4F8181813071F50E94C80080E0F8
S113078060E00E948F010EE312E085E391E0F8013E
S1130790099580E061E00E948F0185E491E0F80111
S11307A009958091D6019091D701FC01EE0FFF1FAE
S11307B08E0F9F1FFC01EE0FFF1FEF5FFD4FCCED6F
S11307C0D1E0808190E0BE0142E050E00E94A900A7
S11307D0CE01F80109958091D6019091D701019637
S11307E09093D7018093D6018091D6019091D7013F
S11307F08A30910524F01092D7011092D6011092FC
S1130800DA011092D90181EB86BDFF91EF91DF915E
S1130810CF91BF91AF919F918F917F916F915F9194
S11308204F913F912F911F910F910F900FBE0F90F9
S11308301F9018951F920F920FB60F9211242F93A9
S11308403F934F935F936F937F938F939F93AF9354
S1130850BF93CF93DF93EF93FF9384E591E00E94DE
S11308609E04A5E0B2E080E090E021E032E0AC013B
S1130870FC01EE0FFF1FE80FF91FEE0FFF1FE20F41
S1130880F31F6281613061F56C91613049F5FC01BF
S1130890EE0FFF1F4E0F5F1FFA01EE0FFF1FEF5FFA
S11308A0FD4F12820E94C80080E060E00E948F0128
S11308B0CEE3D2E081E691E0FE01099580E061E0BB
S11308C00E948F018CE691E0FE0109958FEF93ED74
S11308D0A0E381509040A040E1F700C0000005C0B3
S11308E0019616968A30910511F61CBAFF91EF9184
S11308F0DF91CF91BF91AF919F918F917F916F9134
S11309005F914F913F912F910F900FBE0F901F90C9
S11309101895CF93DF930F92CDB7DEB7898380E428
S11309208093C00089818093C600E0ECF0E0808170
S113093086FFFDCF0F90DF91CF910895CF93DF9382
S1130940EC018881882331F021960E9489048991E1
S11309508823D9F7DF91CF9108951092C50087E6D7
S11309608093C40080E88093C00088E98093C1002C
S113097086E08093C20087E791E00E949E04089578
S113098085E085BD81EB86BD81E080936E0008958E
S113099010926900E89A089584B18F6384B987B18D
S11309A0866087B987B1867F87B98AB1806F8AB933
S11309B052980895E6E0F2E080E090E041E052E0F1
S11309C021E0DF0115978C93DF0114971C92DC0161
S11309D0AA0FBB1FA80FB91FAA0FBB1FA40FB51FD7
S11309E012961C92DF0112971C92DF0111971C9240
S11309F02083019636968A30910519F70895E2E02E
S1130A00F2E0CF01CC9631E040E02081213009F4BE
S1130A10342F3696E817F907C1F7332329F482E80F
S1130A2091E00E949E0408958FE891E00E949E0444
S1130A30089580E090E050E021E032E061E0FC01C4
S1130A40EE0FFF1FE80FF91FEE0FFF1FE20FF31F5A
S1130A504281413009F4562F01968A30910579F785
S1130A60513031F4469A8BE991E00E949E04089536
S1130A7046988AEA91E00E949E0408952F923F923C
S1130A805F926F927F928F929F92AF92BF92CF921A
S1130A90DF92EF92FF920F931F93CF93DF93C1E006
S1130AA0D2E05E010894A11CB11CEE24FF246894DA
S1130AB0E2F8EC0EFD1E0F2EF5E08F2E9924F02D9A
S1130AC08C0E9D1E0F2EF3E0CF2EDD24F02DCC0EC8
S1130AD0DD1E00E010E0552453941E0185B1807F93
S1130AE085B98BB18F708BB985E38A95F1F70000D6
S1130AF095B198013E0188818F70892B85B99BB18E
S1130B008881807F892B8BB98FEF95EAAEE0815085
S1130B109040A040E1F700C00000309903C0D60126
S1130B201C9204C0309B02C0F601508233993FC02E
S1130B30F70180818823D9F5309B39C0D5015C92B7
S1130B40C901880F991F820F931F880F991F820D67
S1130B50931DDC0112965C925082F40110820E9473
S1130B60C80080E060E00E948F0185E391E00E946C
S1130B703E0280E0652D0E948F018AEB91E00E9485
S1130B803E02D3018C9190E06CED71E042E00E9452
S1130B90A9008CED91E00E943E028FEF97EAA1E656
S1130BA081509040A040E1F700C0000019C0339B81
S1130BB017C0D7018C91882399F4309B11C0F5019B
S1130BC01082C901880F991F820F931F880F991FE4
S1130BD0820D931DDC0112961C921297F40150822F
S1130BE00F5F1F4F269686E090E0A80EB91EE80E10
S1130BF0F91E880E991EC80ED91E0A30110509F077
S1130C006DCFDF91CF911F910F91FF90EF90DF9007
S1130C10CF90BF90AF909F908F907F906F905F9098
S1130C203F902F90089529E288E190E00FB6F89460
S1130C30A895809360000FBE2093600087E260E176
S1130C4042E020E00E9414010E9421010E942F0230
S1130C500E94CC040E94C0040E94AD040E94DA04E5
S1130C600E94C804789480E060E00E948F0186ECC2
S1130C7091E00E943E020E943E050E9419050E94D6
S1130C80FF04A895F8CFAA1BBB1B51E107C0AA1FFC
S1130C90BB1FA617B70710F0A61BB70B881F991F19
S1130CA05A95A9F780959095BC01CD010895F894C3
S1050CB0FFCF70
S1130CB20000400014005400200A00532E493A2038
S1130CC200202000462E533A2000412E533A2000A1
S1130CD2562E543A20004F2E542E463A20004441B8
S1130CE254413A200020474153204C45414B204671
S1130CF24F554E440053544154494F4E204641559A
S1130D024C542D000A20696E746572727570740AEF
S1130D12002020202020414C41524D002020202040
S1130D22204D5554454400554152542052454144A6
S1130D3259000A72656C617973206F66660A000A4B
S1130D4272656C617973206F6E0A000A616C61725C
S1130D526D206C6564206F6E0A000A616C61726DAD
S1130D62206C6564206F66660A00204E4557204653
S1130D7241554C542D0020204445564943452052A8
S1090D8245414459000044
S903023EBC
